{"abi":[{"type":"constructor","inputs":[{"name":"entranceFee","type":"uint256","internalType":"uint256"},{"name":"interval","type":"uint256","internalType":"uint256"},{"name":"vrfCoordinator","type":"address","internalType":"address"},{"name":"gasLane","type":"bytes32","internalType":"bytes32"},{"name":"subscriptionId","type":"uint256","internalType":"uint256"},{"name":"callbackGasLimit","type":"uint32","internalType":"uint32"}],"stateMutability":"nonpayable"},{"type":"function","name":"acceptOwnership","inputs":[],"outputs":[],"stateMutability":"nonpayable"},{"type":"function","name":"checkUpkeep","inputs":[{"name":"","type":"bytes","internalType":"bytes"}],"outputs":[{"name":"upkeepNeeded","type":"bool","internalType":"bool"},{"name":"","type":"bytes","internalType":"bytes"}],"stateMutability":"view"},{"type":"function","name":"enterRaffle","inputs":[],"outputs":[],"stateMutability":"payable"},{"type":"function","name":"getEntranceFee","inputs":[],"outputs":[{"name":"","type":"uint256","internalType":"uint256"}],"stateMutability":"view"},{"type":"function","name":"getLastTimeStamp","inputs":[],"outputs":[{"name":"","type":"uint256","internalType":"uint256"}],"stateMutability":"view"},{"type":"function","name":"getPlayer","inputs":[{"name":"indexOfPlayer","type":"uint256","internalType":"uint256"}],"outputs":[{"name":"","type":"address","internalType":"address"}],"stateMutability":"view"},{"type":"function","name":"getRaffleState","inputs":[],"outputs":[{"name":"","type":"uint8","internalType":"enum Raffle.RaffleState"}],"stateMutability":"view"},{"type":"function","name":"getRecentWinner","inputs":[],"outputs":[{"name":"","type":"address","internalType":"address"}],"stateMutability":"view"},{"type":"function","name":"owner","inputs":[],"outputs":[{"name":"","type":"address","internalType":"address"}],"stateMutability":"view"},{"type":"function","name":"performUpkeep","inputs":[{"name":"","type":"bytes","internalType":"bytes"}],"outputs":[],"stateMutability":"nonpayable"},{"type":"function","name":"rawFulfillRandomWords","inputs":[{"name":"requestId","type":"uint256","internalType":"uint256"},{"name":"randomWords","type":"uint256[]","internalType":"uint256[]"}],"outputs":[],"stateMutability":"nonpayable"},{"type":"function","name":"s_vrfCoordinator","inputs":[],"outputs":[{"name":"","type":"address","internalType":"contract IVRFCoordinatorV2Plus"}],"stateMutability":"view"},{"type":"function","name":"setCoordinator","inputs":[{"name":"_vrfCoordinator","type":"address","internalType":"address"}],"outputs":[],"stateMutability":"nonpayable"},{"type":"function","name":"transferOwnership","inputs":[{"name":"to","type":"address","internalType":"address"}],"outputs":[],"stateMutability":"nonpayable"},{"type":"event","name":"OwnershipTransferRequested","inputs":[{"name":"from","type":"address","indexed":true,"internalType":"address"},{"name":"to","type":"address","indexed":true,"internalType":"address"}],"anonymous":false},{"type":"event","name":"OwnershipTransferred","inputs":[{"name":"from","type":"address","indexed":true,"internalType":"address"},{"name":"to","type":"address","indexed":true,"internalType":"address"}],"anonymous":false},{"type":"event","name":"RaffleEntered","inputs":[{"name":"player","type":"address","indexed":true,"internalType":"address"}],"anonymous":false},{"type":"event","name":"RequestedRaffleWinner","inputs":[{"name":"requestId","type":"uint256","indexed":true,"internalType":"uint256"}],"anonymous":false},{"type":"event","name":"WinnerPicked","inputs":[{"name":"winner","type":"address","indexed":true,"internalType":"address"}],"anonymous":false},{"type":"error","name":"OnlyCoordinatorCanFulfill","inputs":[{"name":"have","type":"address","internalType":"address"},{"name":"want","type":"address","internalType":"address"}]},{"type":"error","name":"OnlyOwnerOrCoordinator","inputs":[{"name":"have","type":"address","internalType":"address"},{"name":"owner","type":"address","internalType":"address"},{"name":"coordinator","type":"address","internalType":"address"}]},{"type":"error","name":"Raffle__RaffleNotOpen","inputs":[]},{"type":"error","name":"Raffle__SendMoreToEnterRaffle","inputs":[]},{"type":"error","name":"Raffle__TransferFailed","inputs":[]},{"type":"error","name":"Raffle__UpkeepNotNeeded","inputs":[{"name":"balance","type":"uint256","internalType":"uint256"},{"name":"length","type":"uint256","internalType":"uint256"},{"name":"s_raffleState","type":"uint256","internalType":"uint256"}]},{"type":"error","name":"ZeroAddress","inputs":[]}],"bytecode":{"object":"0x6101206040523480156200001257600080fd5b50604051620023da380380620023da833981810160405281019062000038919062000440565b83338060008073ffffffffffffffffffffffffffffffffffffffff168273ffffffffffffffffffffffffffffffffffffffff1603620000ae576040517f08c379a0000000000000000000000000000000000000000000000000000000008152600401620000a5906200053d565b60405180910390fd5b816000806101000a81548173ffffffffffffffffffffffffffffffffffffffff021916908373ffffffffffffffffffffffffffffffffffffffff160217905550600073ffffffffffffffffffffffffffffffffffffffff168173ffffffffffffffffffffffffffffffffffffffff161462000135576200013481620001f060201b60201c565b5b50505080600260006101000a81548173ffffffffffffffffffffffffffffffffffffffff021916908373ffffffffffffffffffffffffffffffffffffffff1602179055505085608081815250508460a081815250508260c081815250508160e081815250508063ffffffff166101008163ffffffff1681525050426004819055506000600560146101000a81548160ff02191690836001811115620001df57620001de6200055f565b5b021790555050505050505062000600565b3373ffffffffffffffffffffffffffffffffffffffff168173ffffffffffffffffffffffffffffffffffffffff160362000261576040517f08c379a00000000000000000000000000000000000000000000000000000000081526004016200025890620005de565b60405180910390fd5b80600160006101000a81548173ffffffffffffffffffffffffffffffffffffffff021916908373ffffffffffffffffffffffffffffffffffffffff1602179055508073ffffffffffffffffffffffffffffffffffffffff1660008054906101000a900473ffffffffffffffffffffffffffffffffffffffff1673ffffffffffffffffffffffffffffffffffffffff167fed8889f560326eb138920d842192f0eb3dd22b4f139c87a2c57538e05bae127860405160405180910390a350565b600080fd5b6000819050919050565b620003398162000324565b81146200034557600080fd5b50565b60008151905062000359816200032e565b92915050565b600073ffffffffffffffffffffffffffffffffffffffff82169050919050565b60006200038c826200035f565b9050919050565b6200039e816200037f565b8114620003aa57600080fd5b50565b600081519050620003be8162000393565b92915050565b6000819050919050565b620003d981620003c4565b8114620003e557600080fd5b50565b600081519050620003f981620003ce565b92915050565b600063ffffffff82169050919050565b6200041a81620003ff565b81146200042657600080fd5b50565b6000815190506200043a816200040f565b92915050565b60008060008060008060c0878903121562000460576200045f6200031f565b5b60006200047089828a0162000348565b96505060206200048389828a0162000348565b95505060406200049689828a01620003ad565b9450506060620004a989828a01620003e8565b9350506080620004bc89828a0162000348565b92505060a0620004cf89828a0162000429565b9150509295509295509295565b600082825260208201905092915050565b7f43616e6e6f7420736574206f776e657220746f207a65726f0000000000000000600082015250565b600062000525601883620004dc565b91506200053282620004ed565b602082019050919050565b60006020820190508181036000830152620005588162000516565b9050919050565b7f4e487b7100000000000000000000000000000000000000000000000000000000600052602160045260246000fd5b7f43616e6e6f74207472616e7366657220746f2073656c66000000000000000000600082015250565b6000620005c6601783620004dc565b9150620005d3826200058e565b602082019050919050565b60006020820190508181036000830152620005f981620005b7565b9050919050565b60805160a05160c05160e05161010051611d8e6200064c60003960006106b00152600061067f015260006106590152600061080e01526000818161032801526104290152611d8e6000f3fe6080604052600436106100dd5760003560e01c806379ba50971161007f5780639eccacf6116100595780639eccacf614610268578063c1c244e814610293578063e55ae4e8146102be578063f2fde38b146102fb576100dd565b806379ba5097146101fd5780638da5cb5b146102145780638ea981171461023f576100dd565b80632cfcc539116100bb5780632cfcc539146101615780634585e33b1461016b578063473f1ddc146101945780636e04ff0d146101bf576100dd565b806309bc33a7146100e2578063115cbaf51461010d5780631fe543e314610138575b600080fd5b3480156100ee57600080fd5b506100f7610324565b60405161010491906111e5565b60405180910390f35b34801561011957600080fd5b5061012261034c565b60405161012f9190611277565b60405180910390f35b34801561014457600080fd5b5061015f600480360381019061015a919061142b565b610363565b005b610169610427565b005b34801561017757600080fd5b50610192600480360381019061018d91906114e2565b610596565b005b3480156101a057600080fd5b506101a96107dc565b6040516101b69190611570565b60405180910390f35b3480156101cb57600080fd5b506101e660048036038101906101e19190611640565b610806565b6040516101f4929190611723565b60405180910390f35b34801561020957600080fd5b506102126108ee565b005b34801561022057600080fd5b50610229610a83565b6040516102369190611570565b60405180910390f35b34801561024b57600080fd5b506102666004803603810190610261919061177f565b610aac565b005b34801561027457600080fd5b5061027d610bf0565b60405161028a919061180b565b60405180910390f35b34801561029f57600080fd5b506102a8610c16565b6040516102b591906111e5565b60405180910390f35b3480156102ca57600080fd5b506102e560048036038101906102e09190611826565b610c20565b6040516102f29190611570565b60405180910390f35b34801561030757600080fd5b50610322600480360381019061031d919061177f565b610c68565b005b60007f0000000000000000000000000000000000000000000000000000000000000000905090565b6000600560149054906101000a900460ff16905090565b600260009054906101000a900473ffffffffffffffffffffffffffffffffffffffff1673ffffffffffffffffffffffffffffffffffffffff163373ffffffffffffffffffffffffffffffffffffffff16146104195733600260009054906101000a900473ffffffffffffffffffffffffffffffffffffffff166040517f1cf993f4000000000000000000000000000000000000000000000000000000008152600401610410929190611853565b60405180910390fd5b6104238282610c7c565b5050565b7f0000000000000000000000000000000000000000000000000000000000000000341015610481576040517f3038c00a00000000000000000000000000000000000000000000000000000000815260040160405180910390fd5b6000600181111561049557610494611200565b5b600560149054906101000a900460ff1660018111156104b7576104b6611200565b5b146104ee576040517fd24a271400000000000000000000000000000000000000000000000000000000815260040160405180910390fd5b6003339080600181540180825580915050600190039060005260206000200160009091909190916101000a81548173ffffffffffffffffffffffffffffffffffffffff021916908373ffffffffffffffffffffffffffffffffffffffff1602179055503373ffffffffffffffffffffffffffffffffffffffff167f634f3211e3a4e43fee5a21ad9f87ca153b300fc78b1c557a2057dbe9c63bcb4760405160405180910390a2565b60006105b060405180602001604052806000815250610806565b5090508061061f5747600380549050600560149054906101000a900460ff1660018111156105e1576105e0611200565b5b6040517f584327aa0000000000000000000000000000000000000000000000000000000081526004016106169392919061187c565b60405180910390fd5b6001600560146101000a81548160ff0219169083600181111561064557610644611200565b5b021790555060006040518060c001604052807f000000000000000000000000000000000000000000000000000000000000000081526020017f00000000000000000000000000000000000000000000000000000000000000008152602001600361ffff1681526020017f000000000000000000000000000000000000000000000000000000000000000063ffffffff168152602001600163ffffffff168152602001610701604051806020016040528060001515815250610ed1565b81525090506000600260009054906101000a900473ffffffffffffffffffffffffffffffffffffffff1673ffffffffffffffffffffffffffffffffffffffff16639b1c385e836040518263ffffffff1660e01b815260040161076391906119ea565b6020604051808303816000875af1158015610782573d6000803e3d6000fd5b505050506040513d601f19601f820116820180604052508101906107a69190611a21565b9050807fcd6e45c8998311cab7e9d4385596cac867e20a0587194b954fa3a731c93ce78b60405160405180910390a25050505050565b6000600560009054906101000a900473ffffffffffffffffffffffffffffffffffffffff16905090565b6000606060007f00000000000000000000000000000000000000000000000000000000000000006004544261083b9190611a7d565b10159050600080600181111561085457610853611200565b5b600560149054906101000a900460ff16600181111561087657610875611200565b5b149050600080471190506000806003805490501190508380156108965750825b801561089f5750815b80156108a85750805b9550856040518060400160405280600381526020017f30783000000000000000000000000000000000000000000000000000000000008152509550955050505050915091565b600160009054906101000a900473ffffffffffffffffffffffffffffffffffffffff1673ffffffffffffffffffffffffffffffffffffffff163373ffffffffffffffffffffffffffffffffffffffff161461097e576040517f08c379a000000000000000000000000000000000000000000000000000000000815260040161097590611b0e565b60405180910390fd5b60008060009054906101000a900473ffffffffffffffffffffffffffffffffffffffff169050336000806101000a81548173ffffffffffffffffffffffffffffffffffffffff021916908373ffffffffffffffffffffffffffffffffffffffff1602179055506000600160006101000a81548173ffffffffffffffffffffffffffffffffffffffff021916908373ffffffffffffffffffffffffffffffffffffffff1602179055503373ffffffffffffffffffffffffffffffffffffffff168173ffffffffffffffffffffffffffffffffffffffff167f8be0079c531659141344cd1fd0a4f28419497f9722a3daafe3b4186f6b6457e060405160405180910390a350565b60008060009054906101000a900473ffffffffffffffffffffffffffffffffffffffff16905090565b610ab4610a83565b73ffffffffffffffffffffffffffffffffffffffff163373ffffffffffffffffffffffffffffffffffffffff1614158015610b3d5750600260009054906101000a900473ffffffffffffffffffffffffffffffffffffffff1673ffffffffffffffffffffffffffffffffffffffff163373ffffffffffffffffffffffffffffffffffffffff1614155b15610bac5733610b4b610a83565b600260009054906101000a900473ffffffffffffffffffffffffffffffffffffffff166040517f061db9c1000000000000000000000000000000000000000000000000000000008152600401610ba393929190611b2e565b60405180910390fd5b80600260006101000a81548173ffffffffffffffffffffffffffffffffffffffff021916908373ffffffffffffffffffffffffffffffffffffffff16021790555050565b600260009054906101000a900473ffffffffffffffffffffffffffffffffffffffff1681565b6000600454905090565b600060038281548110610c3657610c35611b65565b5b9060005260206000200160009054906101000a900473ffffffffffffffffffffffffffffffffffffffff169050919050565b610c70610f69565b610c7981610ff9565b50565b600060038054905082600081518110610c9857610c97611b65565b5b6020026020010151610caa9190611bc3565b9050600060038281548110610cc257610cc1611b65565b5b9060005260206000200160009054906101000a900473ffffffffffffffffffffffffffffffffffffffff16905080600560006101000a81548173ffffffffffffffffffffffffffffffffffffffff021916908373ffffffffffffffffffffffffffffffffffffffff1602179055506000600560146101000a81548160ff02191690836001811115610d5657610d55611200565b5b0217905550600067ffffffffffffffff811115610d7657610d756112e8565b5b604051908082528060200260200182016040528015610da45781602001602082028036833780820191505090505b5060039080519060200190610dba929190611125565b5042600481905550600560009054906101000a900473ffffffffffffffffffffffffffffffffffffffff1673ffffffffffffffffffffffffffffffffffffffff167f5b690ec4a06fe979403046eaeea5b3ce38524683c3001f662c8b5a829632f7df60405160405180910390a260008173ffffffffffffffffffffffffffffffffffffffff1647604051610e4d90611c25565b60006040518083038185875af1925050503d8060008114610e8a576040519150601f19603f3d011682016040523d82523d6000602084013e610e8f565b606091505b5050905080610eca576040517fa1d04b3900000000000000000000000000000000000000000000000000000000815260040160405180910390fd5b5050505050565b60607f92fd13387c7fe7befbc38d303d6468778fb9731bc4583f17d92989c6fcfdeaaa82604051602401610f059190611c65565b604051602081830303815290604052907bffffffffffffffffffffffffffffffffffffffffffffffffffffffff19166020820180517bffffffffffffffffffffffffffffffffffffffffffffffffffffffff83818316178352505050509050919050565b60008054906101000a900473ffffffffffffffffffffffffffffffffffffffff1673ffffffffffffffffffffffffffffffffffffffff163373ffffffffffffffffffffffffffffffffffffffff1614610ff7576040517f08c379a0000000000000000000000000000000000000000000000000000000008152600401610fee90611ccc565b60405180910390fd5b565b3373ffffffffffffffffffffffffffffffffffffffff168173ffffffffffffffffffffffffffffffffffffffff1603611067576040517f08c379a000000000000000000000000000000000000000000000000000000000815260040161105e90611d38565b60405180910390fd5b80600160006101000a81548173ffffffffffffffffffffffffffffffffffffffff021916908373ffffffffffffffffffffffffffffffffffffffff1602179055508073ffffffffffffffffffffffffffffffffffffffff1660008054906101000a900473ffffffffffffffffffffffffffffffffffffffff1673ffffffffffffffffffffffffffffffffffffffff167fed8889f560326eb138920d842192f0eb3dd22b4f139c87a2c57538e05bae127860405160405180910390a350565b82805482825590600052602060002090810192821561119e579160200282015b8281111561119d5782518260006101000a81548173ffffffffffffffffffffffffffffffffffffffff021916908373ffffffffffffffffffffffffffffffffffffffff16021790555091602001919060010190611145565b5b5090506111ab91906111af565b5090565b5b808211156111c85760008160009055506001016111b0565b5090565b6000819050919050565b6111df816111cc565b82525050565b60006020820190506111fa60008301846111d6565b92915050565b7f4e487b7100000000000000000000000000000000000000000000000000000000600052602160045260246000fd5b600281106112405761123f611200565b5b50565b60008190506112518261122f565b919050565b600061126182611243565b9050919050565b61127181611256565b82525050565b600060208201905061128c6000830184611268565b92915050565b6000604051905090565b600080fd5b600080fd5b6112af816111cc565b81146112ba57600080fd5b50565b6000813590506112cc816112a6565b92915050565b600080fd5b6000601f19601f8301169050919050565b7f4e487b7100000000000000000000000000000000000000000000000000000000600052604160045260246000fd5b611320826112d7565b810181811067ffffffffffffffff8211171561133f5761133e6112e8565b5b80604052505050565b6000611352611292565b905061135e8282611317565b919050565b600067ffffffffffffffff82111561137e5761137d6112e8565b5b602082029050602081019050919050565b600080fd5b60006113a76113a284611363565b611348565b905080838252602082019050602084028301858111156113ca576113c961138f565b5b835b818110156113f357806113df88826112bd565b8452602084019350506020810190506113cc565b5050509392505050565b600082601f830112611412576114116112d2565b5b8135611422848260208601611394565b91505092915050565b600080604083850312156114425761144161129c565b5b6000611450858286016112bd565b925050602083013567ffffffffffffffff811115611471576114706112a1565b5b61147d858286016113fd565b9150509250929050565b600080fd5b60008083601f8401126114a2576114a16112d2565b5b8235905067ffffffffffffffff8111156114bf576114be611487565b5b6020830191508360018202830111156114db576114da61138f565b5b9250929050565b600080602083850312156114f9576114f861129c565b5b600083013567ffffffffffffffff811115611517576115166112a1565b5b6115238582860161148c565b92509250509250929050565b600073ffffffffffffffffffffffffffffffffffffffff82169050919050565b600061155a8261152f565b9050919050565b61156a8161154f565b82525050565b60006020820190506115856000830184611561565b92915050565b600080fd5b600067ffffffffffffffff8211156115ab576115aa6112e8565b5b6115b4826112d7565b9050602081019050919050565b82818337600083830152505050565b60006115e36115de84611590565b611348565b9050828152602081018484840111156115ff576115fe61158b565b5b61160a8482856115c1565b509392505050565b600082601f830112611627576116266112d2565b5b81356116378482602086016115d0565b91505092915050565b6000602082840312156116565761165561129c565b5b600082013567ffffffffffffffff811115611674576116736112a1565b5b61168084828501611612565b91505092915050565b60008115159050919050565b61169e81611689565b82525050565b600081519050919050565b600082825260208201905092915050565b60005b838110156116de5780820151818401526020810190506116c3565b60008484015250505050565b60006116f5826116a4565b6116ff81856116af565b935061170f8185602086016116c0565b611718816112d7565b840191505092915050565b60006040820190506117386000830185611695565b818103602083015261174a81846116ea565b90509392505050565b61175c8161154f565b811461176757600080fd5b50565b60008135905061177981611753565b92915050565b6000602082840312156117955761179461129c565b5b60006117a38482850161176a565b91505092915050565b6000819050919050565b60006117d16117cc6117c78461152f565b6117ac565b61152f565b9050919050565b60006117e3826117b6565b9050919050565b60006117f5826117d8565b9050919050565b611805816117ea565b82525050565b600060208201905061182060008301846117fc565b92915050565b60006020828403121561183c5761183b61129c565b5b600061184a848285016112bd565b91505092915050565b60006040820190506118686000830185611561565b6118756020830184611561565b9392505050565b600060608201905061189160008301866111d6565b61189e60208301856111d6565b6118ab60408301846111d6565b949350505050565b6000819050919050565b6118c6816118b3565b82525050565b6118d5816111cc565b82525050565b600061ffff82169050919050565b6118f2816118db565b82525050565b600063ffffffff82169050919050565b611911816118f8565b82525050565b600082825260208201905092915050565b6000611933826116a4565b61193d8185611917565b935061194d8185602086016116c0565b611956816112d7565b840191505092915050565b600060c08301600083015161197960008601826118bd565b50602083015161198c60208601826118cc565b50604083015161199f60408601826118e9565b5060608301516119b26060860182611908565b5060808301516119c56080860182611908565b5060a083015184820360a08601526119dd8282611928565b9150508091505092915050565b60006020820190508181036000830152611a048184611961565b905092915050565b600081519050611a1b816112a6565b92915050565b600060208284031215611a3757611a3661129c565b5b6000611a4584828501611a0c565b91505092915050565b7f4e487b7100000000000000000000000000000000000000000000000000000000600052601160045260246000fd5b6000611a88826111cc565b9150611a93836111cc565b9250828203905081811115611aab57611aaa611a4e565b5b92915050565b600082825260208201905092915050565b7f4d7573742062652070726f706f736564206f776e657200000000000000000000600082015250565b6000611af8601683611ab1565b9150611b0382611ac2565b602082019050919050565b60006020820190508181036000830152611b2781611aeb565b9050919050565b6000606082019050611b436000830186611561565b611b506020830185611561565b611b5d6040830184611561565b949350505050565b7f4e487b7100000000000000000000000000000000000000000000000000000000600052603260045260246000fd5b7f4e487b7100000000000000000000000000000000000000000000000000000000600052601260045260246000fd5b6000611bce826111cc565b9150611bd9836111cc565b925082611be957611be8611b94565b5b828206905092915050565b600081905092915050565b50565b6000611c0f600083611bf4565b9150611c1a82611bff565b600082019050919050565b6000611c3082611c02565b9150819050919050565b611c4381611689565b82525050565b602082016000820151611c5f6000850182611c3a565b50505050565b6000602082019050611c7a6000830184611c49565b92915050565b7f4f6e6c792063616c6c61626c65206279206f776e657200000000000000000000600082015250565b6000611cb6601683611ab1565b9150611cc182611c80565b602082019050919050565b60006020820190508181036000830152611ce581611ca9565b9050919050565b7f43616e6e6f74207472616e7366657220746f2073656c66000000000000000000600082015250565b6000611d22601783611ab1565b9150611d2d82611cec565b602082019050919050565b60006020820190508181036000830152611d5181611d15565b905091905056fea2646970667358221220681b8fe2b8c6206c2cdda747ff0642b9263f80e677fad381aef8666fb99b385a64736f6c63430008130033","linkReferences":{}},"methodIdentifiers":{"acceptOwnership()":"79ba5097","checkUpkeep(bytes)":"6e04ff0d","enterRaffle()":"2cfcc539","getEntranceFee()":"09bc33a7","getLastTimeStamp()":"c1c244e8","getPlayer(uint256)":"e55ae4e8","getRaffleState()":"115cbaf5","getRecentWinner()":"473f1ddc","owner()":"8da5cb5b","performUpkeep(bytes)":"4585e33b","rawFulfillRandomWords(uint256,uint256[])":"1fe543e3","s_vrfCoordinator()":"9eccacf6","setCoordinator(address)":"8ea98117","transferOwnership(address)":"f2fde38b"},"id":49}