{"abi":[{"type":"function","name":"EXTRA_ARGS_V1_TAG","inputs":[],"outputs":[{"name":"","type":"bytes4","internalType":"bytes4"}],"stateMutability":"view"}],"bytecode":{"object":"0x60fe610052600b82828239805160001a607314610045577f4e487b7100000000000000000000000000000000000000000000000000000000600052600060045260246000fd5b30600052607381538281f3fe730000000000000000000000000000000000000000301460806040526004361060335760003560e01c8063f7514ab4146038575b600080fd5b603e6052565b6040516049919060af565b60405180910390f35b7f92fd13387c7fe7befbc38d303d6468778fb9731bc4583f17d92989c6fcfdeaaa81565b60007fffffffff0000000000000000000000000000000000000000000000000000000082169050919050565b60a9816076565b82525050565b600060208201905060c2600083018460a2565b9291505056fea26469706673582212201161c460d85566b3f62e0b3aea5f6a5209caca28b539ee48db69324461ff1a0e64736f6c63430008130033","linkReferences":{}},"methodIdentifiers":{"EXTRA_ARGS_V1_TAG()":"f7514ab4"},"id":17}