{"abi":[{"type":"constructor","inputs":[],"stateMutability":"nonpayable"},{"type":"function","name":"DOMAIN_SEPARATOR","inputs":[],"outputs":[{"name":"","type":"bytes32","internalType":"bytes32"}],"stateMutability":"view"},{"type":"function","name":"PERMIT_TYPEHASH","inputs":[],"outputs":[{"name":"","type":"bytes32","internalType":"bytes32"}],"stateMutability":"view"},{"type":"function","name":"allowance","inputs":[{"name":"","type":"address","internalType":"address"},{"name":"","type":"address","internalType":"address"}],"outputs":[{"name":"","type":"uint256","internalType":"uint256"}],"stateMutability":"view"},{"type":"function","name":"approve","inputs":[{"name":"spender","type":"address","internalType":"address"},{"name":"amount","type":"uint256","internalType":"uint256"}],"outputs":[{"name":"","type":"bool","internalType":"bool"}],"stateMutability":"nonpayable"},{"type":"function","name":"balanceOf","inputs":[{"name":"","type":"address","internalType":"address"}],"outputs":[{"name":"","type":"uint256","internalType":"uint256"}],"stateMutability":"view"},{"type":"function","name":"decimals","inputs":[],"outputs":[{"name":"","type":"uint8","internalType":"uint8"}],"stateMutability":"view"},{"type":"function","name":"mint","inputs":[{"name":"to","type":"address","internalType":"address"},{"name":"value","type":"uint256","internalType":"uint256"}],"outputs":[],"stateMutability":"nonpayable"},{"type":"function","name":"name","inputs":[],"outputs":[{"name":"","type":"string","internalType":"string"}],"stateMutability":"view"},{"type":"function","name":"nonces","inputs":[{"name":"","type":"address","internalType":"address"}],"outputs":[{"name":"","type":"uint256","internalType":"uint256"}],"stateMutability":"view"},{"type":"function","name":"permit","inputs":[{"name":"owner","type":"address","internalType":"address"},{"name":"spender","type":"address","internalType":"address"},{"name":"value","type":"uint256","internalType":"uint256"},{"name":"deadline","type":"uint256","internalType":"uint256"},{"name":"v","type":"uint8","internalType":"uint8"},{"name":"r","type":"bytes32","internalType":"bytes32"},{"name":"s","type":"bytes32","internalType":"bytes32"}],"outputs":[],"stateMutability":"nonpayable"},{"type":"function","name":"symbol","inputs":[],"outputs":[{"name":"","type":"string","internalType":"string"}],"stateMutability":"view"},{"type":"function","name":"totalSupply","inputs":[],"outputs":[{"name":"","type":"uint256","internalType":"uint256"}],"stateMutability":"view"},{"type":"function","name":"transfer","inputs":[{"name":"to","type":"address","internalType":"address"},{"name":"amount","type":"uint256","internalType":"uint256"}],"outputs":[{"name":"","type":"bool","internalType":"bool"}],"stateMutability":"nonpayable"},{"type":"function","name":"transferAndCall","inputs":[{"name":"_to","type":"address","internalType":"address"},{"name":"_value","type":"uint256","internalType":"uint256"},{"name":"_data","type":"bytes","internalType":"bytes"}],"outputs":[{"name":"success","type":"bool","internalType":"bool"}],"stateMutability":"nonpayable"},{"type":"function","name":"transferFrom","inputs":[{"name":"from","type":"address","internalType":"address"},{"name":"to","type":"address","internalType":"address"},{"name":"amount","type":"uint256","internalType":"uint256"}],"outputs":[{"name":"","type":"bool","internalType":"bool"}],"stateMutability":"nonpayable"},{"type":"event","name":"Approval","inputs":[{"name":"owner","type":"address","indexed":true,"internalType":"address"},{"name":"spender","type":"address","indexed":true,"internalType":"address"},{"name":"amount","type":"uint256","indexed":false,"internalType":"uint256"}],"anonymous":false},{"type":"event","name":"Transfer","inputs":[{"name":"from","type":"address","indexed":true,"internalType":"address"},{"name":"to","type":"address","indexed":true,"internalType":"address"},{"name":"value","type":"uint256","indexed":false,"internalType":"uint256"},{"name":"data","type":"bytes","indexed":false,"internalType":"bytes"}],"anonymous":false},{"type":"event","name":"Transfer","inputs":[{"name":"from","type":"address","indexed":true,"internalType":"address"},{"name":"to","type":"address","indexed":true,"internalType":"address"},{"name":"amount","type":"uint256","indexed":false,"internalType":"uint256"}],"anonymous":false}],"bytecode":{"object":"0x60e06040523480156200001157600080fd5b50604051806040016040528060098152602001682634b735aa37b5b2b760b91b815250604051806040016040528060048152602001634c494e4b60e01b815250601282600090816200006491906200025b565b5060016200007383826200025b565b5060ff81166080524660a05262000089620000ad565b60c05250620000a7915033905069d3c21bcecceda100000062000149565b620003cd565b60007f8b73c3c69bb8fe3d512ecc4cf759cc79239f7b179b0ffacaa9a75d522b39400f6000604051620000e1919062000327565b6040805191829003822060208301939093528101919091527fc89efdaa54c0f20c7adf612882df0950f5a951637e0307cdcb4c672f298b8bc660608201524660808201523060a082015260c00160405160208183030381529060405280519060200120905090565b80600260008282546200015d9190620003a5565b90915550506001600160a01b0382166000818152600360209081526040808320805486019055518481527fddf252ad1be2c89b69c2b068fc378daa952ba7f163c4a11628f55a4df523b3ef910160405180910390a35050565b634e487b7160e01b600052604160045260246000fd5b600181811c90821680620001e157607f821691505b6020821081036200020257634e487b7160e01b600052602260045260246000fd5b50919050565b601f8211156200025657600081815260208120601f850160051c81016020861015620002315750805b601f850160051c820191505b8181101562000252578281556001016200023d565b5050505b505050565b81516001600160401b03811115620002775762000277620001b6565b6200028f81620002888454620001cc565b8462000208565b602080601f831160018114620002c75760008415620002ae5750858301515b600019600386901b1c1916600185901b17855562000252565b600085815260208120601f198616915b82811015620002f857888601518255948401946001909101908401620002d7565b5085821015620003175787850151600019600388901b60f8161c191681555b5050505050600190811b01905550565b60008083546200033781620001cc565b60018281168015620003525760018114620003685762000399565b60ff198416875282151583028701945062000399565b8760005260208060002060005b85811015620003905781548a82015290840190820162000375565b50505082870194505b50929695505050505050565b80820180821115620003c757634e487b7160e01b600052601160045260246000fd5b92915050565b60805160a05160c051610dc4620003fd60003960006104b40152600061047f015260006101910152610dc46000f3fe608060405234801561001057600080fd5b50600436106100f55760003560e01c80634000aea01161009757806395d89b411161006657806395d89b4114610235578063a9059cbb1461023d578063d505accf14610250578063dd62ed3e1461026357600080fd5b80634000aea0146101cd57806340c10f19146101e057806370a08231146101f55780637ecebe001461021557600080fd5b806323b872dd116100d357806323b872dd1461015257806330adf81f14610165578063313ce5671461018c5780633644e515146101c557600080fd5b806306fdde03146100fa578063095ea7b31461011857806318160ddd1461013b575b600080fd5b61010261028e565b60405161010f91906109ea565b60405180910390f35b61012b610126366004610a20565b61031c565b604051901515815260200161010f565b61014460025481565b60405190815260200161010f565b61012b610160366004610a4a565b610389565b6101447f6e71edae12b1b97f4d1f60370fef10105fa2faae0126114a169c64845d6126c981565b6101b37f000000000000000000000000000000000000000000000000000000000000000081565b60405160ff909116815260200161010f565b61014461047b565b61012b6101db366004610a9c565b6104d6565b6101f36101ee366004610a20565b61054c565b005b610144610203366004610b67565b60036020526000908152604090205481565b610144610223366004610b67565b60056020526000908152604090205481565b61010261055a565b61012b61024b366004610a20565b610567565b6101f361025e366004610b82565b6105df565b610144610271366004610bf5565b600460209081526000928352604080842090915290825290205481565b6000805461029b90610c28565b80601f01602080910402602001604051908101604052809291908181526020018280546102c790610c28565b80156103145780601f106102e957610100808354040283529160200191610314565b820191906000526020600020905b8154815290600101906020018083116102f757829003601f168201915b505050505081565b3360008181526004602090815260408083206001600160a01b038716808552925280832085905551919290917f8c5be1e5ebec7d5bd14f71427d1e84f3dd0314c0f7b2291e5b200ac8c7c3b925906103779086815260200190565b60405180910390a35060015b92915050565b6001600160a01b038316600090815260046020908152604080832033845290915281205460001981146103e5576103c08382610c78565b6001600160a01b03861660009081526004602090815260408083203384529091529020555b6001600160a01b0385166000908152600360205260408120805485929061040d908490610c78565b90915550506001600160a01b03808516600081815260036020526040908190208054870190555190918716907fddf252ad1be2c89b69c2b068fc378daa952ba7f163c4a11628f55a4df523b3ef906104689087815260200190565b60405180910390a3506001949350505050565b60007f000000000000000000000000000000000000000000000000000000000000000046146104b1576104ac610835565b905090565b507f000000000000000000000000000000000000000000000000000000000000000090565b60006104e28484610567565b50836001600160a01b0316336001600160a01b03167fe19260aff97b920c7df27010903aeb9c8d2be5d310a2c67824cf3f15396e4c168585604051610528929190610c8b565b60405180910390a3833b15610542576105428484846108cf565b5060019392505050565b6105568282610939565b5050565b6001805461029b90610c28565b33600090815260036020526040812080548391908390610588908490610c78565b90915550506001600160a01b038316600081815260036020526040908190208054850190555133907fddf252ad1be2c89b69c2b068fc378daa952ba7f163c4a11628f55a4df523b3ef906103779086815260200190565b428410156106345760405162461bcd60e51b815260206004820152601760248201527f5045524d49545f444541444c494e455f4558504952454400000000000000000060448201526064015b60405180910390fd5b600061063e61047b565b6001600160a01b0389811660008181526005602090815260409182902080546001810190915582517f6e71edae12b1b97f4d1f60370fef10105fa2faae0126114a169c64845d6126c98184015280840194909452938c166060840152608083018b905260a083019390935260c08083018a90528151808403909101815260e08301909152805192019190912061190160f01b6101008301526101028201929092526101228101919091526101420160408051601f198184030181528282528051602091820120600080855291840180845281905260ff88169284019290925260608301869052608083018590529092509060019060a0016020604051602081039080840390855afa158015610757573d6000803e3d6000fd5b5050604051601f1901519150506001600160a01b0381161580159061078d5750886001600160a01b0316816001600160a01b0316145b6107ca5760405162461bcd60e51b815260206004820152600e60248201526d24a72b20a624a22fa9a4a3a722a960911b604482015260640161062b565b6001600160a01b0390811660009081526004602090815260408083208b8516808552908352928190208a905551898152919350918a16917f8c5be1e5ebec7d5bd14f71427d1e84f3dd0314c0f7b2291e5b200ac8c7c3b925910160405180910390a350505050505050565b60007f8b73c3c69bb8fe3d512ecc4cf759cc79239f7b179b0ffacaa9a75d522b39400f60006040516108679190610cac565b6040805191829003822060208301939093528101919091527fc89efdaa54c0f20c7adf612882df0950f5a951637e0307cdcb4c672f298b8bc660608201524660808201523060a082015260c00160405160208183030381529060405280519060200120905090565b604051635260769b60e11b815283906001600160a01b0382169063a4c0ed369061090190339087908790600401610d4b565b600060405180830381600087803b15801561091b57600080fd5b505af115801561092f573d6000803e3d6000fd5b5050505050505050565b806002600082825461094b9190610d7b565b90915550506001600160a01b0382166000818152600360209081526040808320805486019055518481527fddf252ad1be2c89b69c2b068fc378daa952ba7f163c4a11628f55a4df523b3ef910160405180910390a35050565b6000815180845260005b818110156109ca576020818501810151868301820152016109ae565b506000602082860101526020601f19601f83011685010191505092915050565b6020815260006109fd60208301846109a4565b9392505050565b80356001600160a01b0381168114610a1b57600080fd5b919050565b60008060408385031215610a3357600080fd5b610a3c83610a04565b946020939093013593505050565b600080600060608486031215610a5f57600080fd5b610a6884610a04565b9250610a7660208501610a04565b9150604084013590509250925092565b634e487b7160e01b600052604160045260246000fd5b600080600060608486031215610ab157600080fd5b610aba84610a04565b925060208401359150604084013567ffffffffffffffff80821115610ade57600080fd5b818601915086601f830112610af257600080fd5b813581811115610b0457610b04610a86565b604051601f8201601f19908116603f01168101908382118183101715610b2c57610b2c610a86565b81604052828152896020848701011115610b4557600080fd5b8260208601602083013760006020848301015280955050505050509250925092565b600060208284031215610b7957600080fd5b6109fd82610a04565b600080600080600080600060e0888a031215610b9d57600080fd5b610ba688610a04565b9650610bb460208901610a04565b95506040880135945060608801359350608088013560ff81168114610bd857600080fd5b9699959850939692959460a0840135945060c09093013592915050565b60008060408385031215610c0857600080fd5b610c1183610a04565b9150610c1f60208401610a04565b90509250929050565b600181811c90821680610c3c57607f821691505b602082108103610c5c57634e487b7160e01b600052602260045260246000fd5b50919050565b634e487b7160e01b600052601160045260246000fd5b8181038181111561038357610383610c62565b828152604060208201526000610ca460408301846109a4565b949350505050565b600080835481600182811c915080831680610cc857607f831692505b60208084108203610ce757634e487b7160e01b86526022600452602486fd5b818015610cfb5760018114610d1057610d3d565b60ff1986168952841515850289019650610d3d565b60008a81526020902060005b86811015610d355781548b820152908501908301610d1c565b505084890196505b509498975050505050505050565b60018060a01b0384168152826020820152606060408201526000610d7260608301846109a4565b95945050505050565b8082018082111561038357610383610c6256fea264697066735822122055d4cac58f18bc852e5ab95810f31053ae89951712365d74472bf232a21a9d4c64736f6c63430008130033","linkReferences":{}},"methodIdentifiers":{"DOMAIN_SEPARATOR()":"3644e515","PERMIT_TYPEHASH()":"30adf81f","allowance(address,address)":"dd62ed3e","approve(address,uint256)":"095ea7b3","balanceOf(address)":"70a08231","decimals()":"313ce567","mint(address,uint256)":"40c10f19","name()":"06fdde03","nonces(address)":"7ecebe00","permit(address,address,uint256,uint256,uint8,bytes32,bytes32)":"d505accf","symbol()":"95d89b41","totalSupply()":"18160ddd","transfer(address,uint256)":"a9059cbb","transferAndCall(address,uint256,bytes)":"4000aea0","transferFrom(address,address,uint256)":"23b872dd"},"id":50}